{
  "_format": "hh-sol-artifact-1",
  "contractName": "AhjinCoin",
  "sourceName": "contracts/AhjinCoin.sol",
  "abi": [
    {
      "inputs": [],
      "stateMutability": "nonpayable",
      "type": "constructor"
    },
    {
      "anonymous": false,
      "inputs": [
        {
          "indexed": true,
          "internalType": "address",
          "name": "owner",
          "type": "address"
        },
        {
          "indexed": true,
          "internalType": "address",
          "name": "spender",
          "type": "address"
        },
        {
          "indexed": false,
          "internalType": "uint256",
          "name": "value",
          "type": "uint256"
        }
      ],
      "name": "Approval",
      "type": "event"
    },
    {
      "anonymous": false,
      "inputs": [
        {
          "indexed": true,
          "internalType": "address",
          "name": "from",
          "type": "address"
        },
        {
          "indexed": true,
          "internalType": "address",
          "name": "to",
          "type": "address"
        },
        {
          "indexed": false,
          "internalType": "uint256",
          "name": "value",
          "type": "uint256"
        }
      ],
      "name": "Transfer",
      "type": "event"
    },
    {
      "anonymous": false,
      "inputs": [
        {
          "indexed": false,
          "internalType": "address",
          "name": "sender",
          "type": "address"
        },
        {
          "indexed": false,
          "internalType": "address",
          "name": "receiver",
          "type": "address"
        },
        {
          "indexed": false,
          "internalType": "uint256",
          "name": "amount",
          "type": "uint256"
        },
        {
          "indexed": false,
          "internalType": "string",
          "name": "message",
          "type": "string"
        }
      ],
      "name": "TransferRewardEvent",
      "type": "event"
    },
    {
      "stateMutability": "payable",
      "type": "fallback"
    },
    {
      "inputs": [
        {
          "internalType": "address",
          "name": "owner",
          "type": "address"
        },
        {
          "internalType": "address",
          "name": "spender",
          "type": "address"
        }
      ],
      "name": "allowance",
      "outputs": [
        {
          "internalType": "uint256",
          "name": "",
          "type": "uint256"
        }
      ],
      "stateMutability": "view",
      "type": "function"
    },
    {
      "inputs": [
        {
          "internalType": "address",
          "name": "spender",
          "type": "address"
        },
        {
          "internalType": "uint256",
          "name": "amount",
          "type": "uint256"
        }
      ],
      "name": "approve",
      "outputs": [
        {
          "internalType": "bool",
          "name": "",
          "type": "bool"
        }
      ],
      "stateMutability": "nonpayable",
      "type": "function"
    },
    {
      "inputs": [
        {
          "internalType": "address",
          "name": "account",
          "type": "address"
        }
      ],
      "name": "balanceOf",
      "outputs": [
        {
          "internalType": "uint256",
          "name": "",
          "type": "uint256"
        }
      ],
      "stateMutability": "view",
      "type": "function"
    },
    {
      "inputs": [
        {
          "internalType": "uint256",
          "name": "amount",
          "type": "uint256"
        }
      ],
      "name": "burn",
      "outputs": [],
      "stateMutability": "payable",
      "type": "function"
    },
    {
      "inputs": [],
      "name": "decimals",
      "outputs": [
        {
          "internalType": "uint8",
          "name": "",
          "type": "uint8"
        }
      ],
      "stateMutability": "view",
      "type": "function"
    },
    {
      "inputs": [
        {
          "internalType": "address",
          "name": "spender",
          "type": "address"
        },
        {
          "internalType": "uint256",
          "name": "subtractedValue",
          "type": "uint256"
        }
      ],
      "name": "decreaseAllowance",
      "outputs": [
        {
          "internalType": "bool",
          "name": "",
          "type": "bool"
        }
      ],
      "stateMutability": "nonpayable",
      "type": "function"
    },
    {
      "inputs": [],
      "name": "getAllTransaction",
      "outputs": [
        {
          "components": [
            {
              "internalType": "address",
              "name": "sender",
              "type": "address"
            },
            {
              "internalType": "address",
              "name": "receiver",
              "type": "address"
            },
            {
              "internalType": "uint256",
              "name": "amount",
              "type": "uint256"
            },
            {
              "internalType": "string",
              "name": "messsage",
              "type": "string"
            }
          ],
          "internalType": "struct AhjinCoin.TransferStruct[]",
          "name": "",
          "type": "tuple[]"
        }
      ],
      "stateMutability": "view",
      "type": "function"
    },
    {
      "inputs": [
        {
          "internalType": "address",
          "name": "spender",
          "type": "address"
        },
        {
          "internalType": "uint256",
          "name": "addedValue",
          "type": "uint256"
        }
      ],
      "name": "increaseAllowance",
      "outputs": [
        {
          "internalType": "bool",
          "name": "",
          "type": "bool"
        }
      ],
      "stateMutability": "nonpayable",
      "type": "function"
    },
    {
      "inputs": [
        {
          "internalType": "uint256",
          "name": "amount",
          "type": "uint256"
        }
      ],
      "name": "mint",
      "outputs": [],
      "stateMutability": "payable",
      "type": "function"
    },
    {
      "inputs": [],
      "name": "name",
      "outputs": [
        {
          "internalType": "string",
          "name": "",
          "type": "string"
        }
      ],
      "stateMutability": "view",
      "type": "function"
    },
    {
      "inputs": [],
      "name": "symbol",
      "outputs": [
        {
          "internalType": "string",
          "name": "",
          "type": "string"
        }
      ],
      "stateMutability": "view",
      "type": "function"
    },
    {
      "inputs": [],
      "name": "totalSupply",
      "outputs": [
        {
          "internalType": "uint256",
          "name": "",
          "type": "uint256"
        }
      ],
      "stateMutability": "view",
      "type": "function"
    },
    {
      "inputs": [
        {
          "internalType": "address",
          "name": "to",
          "type": "address"
        },
        {
          "internalType": "uint256",
          "name": "amount",
          "type": "uint256"
        }
      ],
      "name": "transfer",
      "outputs": [
        {
          "internalType": "bool",
          "name": "",
          "type": "bool"
        }
      ],
      "stateMutability": "nonpayable",
      "type": "function"
    },
    {
      "inputs": [
        {
          "internalType": "address",
          "name": "from",
          "type": "address"
        },
        {
          "internalType": "address",
          "name": "to",
          "type": "address"
        },
        {
          "internalType": "uint256",
          "name": "amount",
          "type": "uint256"
        }
      ],
      "name": "transferFrom",
      "outputs": [
        {
          "internalType": "bool",
          "name": "",
          "type": "bool"
        }
      ],
      "stateMutability": "nonpayable",
      "type": "function"
    },
    {
      "inputs": [
        {
          "internalType": "address",
          "name": "sender",
          "type": "address"
        },
        {
          "internalType": "address payable",
          "name": "receiver",
          "type": "address"
        },
        {
          "internalType": "uint256",
          "name": "amount",
          "type": "uint256"
        },
        {
          "internalType": "string",
          "name": "message",
          "type": "string"
        }
      ],
      "name": "transferReward",
      "outputs": [],
      "stateMutability": "nonpayable",
      "type": "function"
    },
    {
      "stateMutability": "payable",
      "type": "receive"
    }
  ],
  "bytecode": "0x60806040523480156200001157600080fd5b506040518060400160405280600a81526020017f41686a696e20436f696e000000000000000000000000000000000000000000008152506040518060400160405280600281526020017f4143000000000000000000000000000000000000000000000000000000000000815250816003908051906020019062000096929190620000b8565b508060049080519060200190620000af929190620000b8565b505050620001cd565b828054620000c69062000168565b90600052602060002090601f016020900481019282620000ea576000855562000136565b82601f106200010557805160ff191683800117855562000136565b8280016001018555821562000136579182015b828111156200013557825182559160200191906001019062000118565b5b50905062000145919062000149565b5090565b5b80821115620001645760008160009055506001016200014a565b5090565b600060028204905060018216806200018157607f821691505b602082108114156200019857620001976200019e565b5b50919050565b7f4e487b7100000000000000000000000000000000000000000000000000000000600052602260045260246000fd5b6120e480620001dd6000396000f3fe6080604052600436106100ec5760003560e01c806344eefc431161008a578063a457c2d711610059578063a457c2d7146102f6578063a9059cbb14610333578063add6415d14610370578063dd62ed3e1461039b576100f3565b806344eefc431461024957806370a082311461027257806395d89b41146102af578063a0712d68146102da576100f3565b806323b872dd116100c657806323b872dd14610188578063313ce567146101c557806339509351146101f057806342966c681461022d576100f3565b806306fdde03146100f5578063095ea7b31461012057806318160ddd1461015d576100f3565b366100f357005b005b34801561010157600080fd5b5061010a6103d8565b60405161011791906118e1565b60405180910390f35b34801561012c57600080fd5b50610147600480360381019061014291906114ce565b61046a565b60405161015491906118c6565b60405180910390f35b34801561016957600080fd5b5061017261048d565b60405161017f9190611a43565b60405180910390f35b34801561019457600080fd5b506101af60048036038101906101aa919061147f565b610497565b6040516101bc91906118c6565b60405180910390f35b3480156101d157600080fd5b506101da6104c6565b6040516101e79190611a5e565b60405180910390f35b3480156101fc57600080fd5b50610217600480360381019061021291906114ce565b6104cf565b60405161022491906118c6565b60405180910390f35b6102476004803603810190610242919061150a565b610506565b005b34801561025557600080fd5b50610270600480360381019061026b9190611404565b610513565b005b34801561027e57600080fd5b506102996004803603810190610294919061139f565b610685565b6040516102a69190611a43565b60405180910390f35b3480156102bb57600080fd5b506102c46106cd565b6040516102d191906118e1565b60405180910390f35b6102f460048036038101906102ef919061150a565b61075f565b005b34801561030257600080fd5b5061031d600480360381019061031891906114ce565b61076c565b60405161032a91906118c6565b60405180910390f35b34801561033f57600080fd5b5061035a600480360381019061035591906114ce565b6107e3565b60405161036791906118c6565b60405180910390f35b34801561037c57600080fd5b50610385610806565b60405161039291906118a4565b60405180910390f35b3480156103a757600080fd5b506103c260048036038101906103bd91906113c8565b6109ad565b6040516103cf9190611a43565b60405180910390f35b6060600380546103e790611c9e565b80601f016020809104026020016040519081016040528092919081815260200182805461041390611c9e565b80156104605780601f1061043557610100808354040283529160200191610460565b820191906000526020600020905b81548152906001019060200180831161044357829003601f168201915b5050505050905090565b600080610475610a34565b9050610482818585610a3c565b600191505092915050565b6000600254905090565b6000806104a2610a34565b90506104af858285610c07565b6104ba858585610c93565b60019150509392505050565b60006012905090565b6000806104da610a34565b90506104fb8185856104ec85896109ad565b6104f69190611b35565b610a3c565b600191505092915050565b6105103382610f14565b50565b600560405180608001604052808673ffffffffffffffffffffffffffffffffffffffff1681526020018573ffffffffffffffffffffffffffffffffffffffff16815260200184815260200183815250908060018154018082558091505060019003906000526020600020906004020160009091909190915060008201518160000160006101000a81548173ffffffffffffffffffffffffffffffffffffffff021916908373ffffffffffffffffffffffffffffffffffffffff16021790555060208201518160010160006101000a81548173ffffffffffffffffffffffffffffffffffffffff021916908373ffffffffffffffffffffffffffffffffffffffff16021790555060408201518160020155606082015181600301908051906020019061063f929190611255565b5050507fc6d6b513e3afb882fe12c61a48e66788a615d4d2c05b9de7e28f10aa2a6d49c7848484846040516106779493929190611858565b60405180910390a150505050565b60008060008373ffffffffffffffffffffffffffffffffffffffff1673ffffffffffffffffffffffffffffffffffffffff168152602001908152602001600020549050919050565b6060600480546106dc90611c9e565b80601f016020809104026020016040519081016040528092919081815260200182805461070890611c9e565b80156107555780601f1061072a57610100808354040283529160200191610755565b820191906000526020600020905b81548152906001019060200180831161073857829003601f168201915b5050505050905090565b61076933826110eb565b50565b600080610777610a34565b9050600061078582866109ad565b9050838110156107ca576040517f08c379a00000000000000000000000000000000000000000000000000000000081526004016107c190611a03565b60405180910390fd5b6107d78286868403610a3c565b60019250505092915050565b6000806107ee610a34565b90506107fb818585610c93565b600191505092915050565b60606005805480602002602001604051908101604052809291908181526020016000905b828210156109a457838290600052602060002090600402016040518060800160405290816000820160009054906101000a900473ffffffffffffffffffffffffffffffffffffffff1673ffffffffffffffffffffffffffffffffffffffff1673ffffffffffffffffffffffffffffffffffffffff1681526020016001820160009054906101000a900473ffffffffffffffffffffffffffffffffffffffff1673ffffffffffffffffffffffffffffffffffffffff1673ffffffffffffffffffffffffffffffffffffffff1681526020016002820154815260200160038201805461091390611c9e565b80601f016020809104026020016040519081016040528092919081815260200182805461093f90611c9e565b801561098c5780601f106109615761010080835404028352916020019161098c565b820191906000526020600020905b81548152906001019060200180831161096f57829003601f168201915b5050505050815250508152602001906001019061082a565b50505050905090565b6000600160008473ffffffffffffffffffffffffffffffffffffffff1673ffffffffffffffffffffffffffffffffffffffff16815260200190815260200160002060008373ffffffffffffffffffffffffffffffffffffffff1673ffffffffffffffffffffffffffffffffffffffff16815260200190815260200160002054905092915050565b600033905090565b600073ffffffffffffffffffffffffffffffffffffffff168373ffffffffffffffffffffffffffffffffffffffff161415610aac576040517f08c379a0000000000000000000000000000000000000000000000000000000008152600401610aa3906119e3565b60405180910390fd5b600073ffffffffffffffffffffffffffffffffffffffff168273ffffffffffffffffffffffffffffffffffffffff161415610b1c576040517f08c379a0000000000000000000000000000000000000000000000000000000008152600401610b1390611943565b60405180910390fd5b80600160008573ffffffffffffffffffffffffffffffffffffffff1673ffffffffffffffffffffffffffffffffffffffff16815260200190815260200160002060008473ffffffffffffffffffffffffffffffffffffffff1673ffffffffffffffffffffffffffffffffffffffff168152602001908152602001600020819055508173ffffffffffffffffffffffffffffffffffffffff168373ffffffffffffffffffffffffffffffffffffffff167f8c5be1e5ebec7d5bd14f71427d1e84f3dd0314c0f7b2291e5b200ac8c7c3b92583604051610bfa9190611a43565b60405180910390a3505050565b6000610c1384846109ad565b90507fffffffffffffffffffffffffffffffffffffffffffffffffffffffffffffffff8114610c8d5781811015610c7f576040517f08c379a0000000000000000000000000000000000000000000000000000000008152600401610c7690611963565b60405180910390fd5b610c8c8484848403610a3c565b5b50505050565b600073ffffffffffffffffffffffffffffffffffffffff168373ffffffffffffffffffffffffffffffffffffffff161415610d03576040517f08c379a0000000000000000000000000000000000000000000000000000000008152600401610cfa906119c3565b60405180910390fd5b600073ffffffffffffffffffffffffffffffffffffffff168273ffffffffffffffffffffffffffffffffffffffff161415610d73576040517f08c379a0000000000000000000000000000000000000000000000000000000008152600401610d6a90611903565b60405180910390fd5b610d7e83838361124b565b60008060008573ffffffffffffffffffffffffffffffffffffffff1673ffffffffffffffffffffffffffffffffffffffff16815260200190815260200160002054905081811015610e04576040517f08c379a0000000000000000000000000000000000000000000000000000000008152600401610dfb90611983565b60405180910390fd5b8181036000808673ffffffffffffffffffffffffffffffffffffffff1673ffffffffffffffffffffffffffffffffffffffff16815260200190815260200160002081905550816000808573ffffffffffffffffffffffffffffffffffffffff1673ffffffffffffffffffffffffffffffffffffffff1681526020019081526020016000206000828254610e979190611b35565b925050819055508273ffffffffffffffffffffffffffffffffffffffff168473ffffffffffffffffffffffffffffffffffffffff167fddf252ad1be2c89b69c2b068fc378daa952ba7f163c4a11628f55a4df523b3ef84604051610efb9190611a43565b60405180910390a3610f0e848484611250565b50505050565b600073ffffffffffffffffffffffffffffffffffffffff168273ffffffffffffffffffffffffffffffffffffffff161415610f84576040517f08c379a0000000000000000000000000000000000000000000000000000000008152600401610f7b906119a3565b60405180910390fd5b610f908260008361124b565b60008060008473ffffffffffffffffffffffffffffffffffffffff1673ffffffffffffffffffffffffffffffffffffffff16815260200190815260200160002054905081811015611016576040517f08c379a000000000000000000000000000000000000000000000000000000000815260040161100d90611923565b60405180910390fd5b8181036000808573ffffffffffffffffffffffffffffffffffffffff1673ffffffffffffffffffffffffffffffffffffffff16815260200190815260200160002081905550816002600082825461106d9190611b8b565b92505081905550600073ffffffffffffffffffffffffffffffffffffffff168373ffffffffffffffffffffffffffffffffffffffff167fddf252ad1be2c89b69c2b068fc378daa952ba7f163c4a11628f55a4df523b3ef846040516110d29190611a43565b60405180910390a36110e683600084611250565b505050565b600073ffffffffffffffffffffffffffffffffffffffff168273ffffffffffffffffffffffffffffffffffffffff16141561115b576040517f08c379a000000000000000000000000000000000000000000000000000000000815260040161115290611a23565b60405180910390fd5b6111676000838361124b565b80600260008282546111799190611b35565b92505081905550806000808473ffffffffffffffffffffffffffffffffffffffff1673ffffffffffffffffffffffffffffffffffffffff16815260200190815260200160002060008282546111ce9190611b35565b925050819055508173ffffffffffffffffffffffffffffffffffffffff16600073ffffffffffffffffffffffffffffffffffffffff167fddf252ad1be2c89b69c2b068fc378daa952ba7f163c4a11628f55a4df523b3ef836040516112339190611a43565b60405180910390a361124760008383611250565b5050565b505050565b505050565b82805461126190611c9e565b90600052602060002090601f01602090048101928261128357600085556112ca565b82601f1061129c57805160ff19168380011785556112ca565b828001600101855582156112ca579182015b828111156112c95782518255916020019190600101906112ae565b5b5090506112d791906112db565b5090565b5b808211156112f45760008160009055506001016112dc565b5090565b600061130b61130684611a9e565b611a79565b90508281526020810184848401111561132357600080fd5b61132e848285611c5c565b509392505050565b60008135905061134581612069565b92915050565b60008135905061135a81612080565b92915050565b600082601f83011261137157600080fd5b81356113818482602086016112f8565b91505092915050565b60008135905061139981612097565b92915050565b6000602082840312156113b157600080fd5b60006113bf84828501611336565b91505092915050565b600080604083850312156113db57600080fd5b60006113e985828601611336565b92505060206113fa85828601611336565b9150509250929050565b6000806000806080858703121561141a57600080fd5b600061142887828801611336565b94505060206114398782880161134b565b935050604061144a8782880161138a565b925050606085013567ffffffffffffffff81111561146757600080fd5b61147387828801611360565b91505092959194509250565b60008060006060848603121561149457600080fd5b60006114a286828701611336565b93505060206114b386828701611336565b92505060406114c48682870161138a565b9150509250925092565b600080604083850312156114e157600080fd5b60006114ef85828601611336565b92505060206115008582860161138a565b9150509250929050565b60006020828403121561151c57600080fd5b600061152a8482850161138a565b91505092915050565b600061153f83836117c8565b905092915050565b61155081611c26565b82525050565b61155f81611bbf565b82525050565b61156e81611bbf565b82525050565b600061157f82611adf565b6115898185611b02565b93508360208202850161159b85611acf565b8060005b858110156115d757848403895281516115b88582611533565b94506115c383611af5565b925060208a0199505060018101905061159f565b50829750879550505050505092915050565b6115f281611be3565b82525050565b600061160382611aea565b61160d8185611b13565b935061161d818560208601611c6b565b61162681611d8e565b840191505092915050565b600061163c82611aea565b6116468185611b24565b9350611656818560208601611c6b565b61165f81611d8e565b840191505092915050565b6000611677602383611b24565b915061168282611d9f565b604082019050919050565b600061169a602283611b24565b91506116a582611dee565b604082019050919050565b60006116bd602283611b24565b91506116c882611e3d565b604082019050919050565b60006116e0601d83611b24565b91506116eb82611e8c565b602082019050919050565b6000611703602683611b24565b915061170e82611eb5565b604082019050919050565b6000611726602183611b24565b915061173182611f04565b604082019050919050565b6000611749602583611b24565b915061175482611f53565b604082019050919050565b600061176c602483611b24565b915061177782611fa2565b604082019050919050565b600061178f602583611b24565b915061179a82611ff1565b604082019050919050565b60006117b2601f83611b24565b91506117bd82612040565b602082019050919050565b60006080830160008301516117e06000860182611556565b5060208301516117f36020860182611556565b506040830151611806604086018261182b565b506060830151848203606086015261181e82826115f8565b9150508091505092915050565b61183481611c0f565b82525050565b61184381611c0f565b82525050565b61185281611c19565b82525050565b600060808201905061186d6000830187611565565b61187a6020830186611547565b611887604083018561183a565b81810360608301526118998184611631565b905095945050505050565b600060208201905081810360008301526118be8184611574565b905092915050565b60006020820190506118db60008301846115e9565b92915050565b600060208201905081810360008301526118fb8184611631565b905092915050565b6000602082019050818103600083015261191c8161166a565b9050919050565b6000602082019050818103600083015261193c8161168d565b9050919050565b6000602082019050818103600083015261195c816116b0565b9050919050565b6000602082019050818103600083015261197c816116d3565b9050919050565b6000602082019050818103600083015261199c816116f6565b9050919050565b600060208201905081810360008301526119bc81611719565b9050919050565b600060208201905081810360008301526119dc8161173c565b9050919050565b600060208201905081810360008301526119fc8161175f565b9050919050565b60006020820190508181036000830152611a1c81611782565b9050919050565b60006020820190508181036000830152611a3c816117a5565b9050919050565b6000602082019050611a58600083018461183a565b92915050565b6000602082019050611a736000830184611849565b92915050565b6000611a83611a94565b9050611a8f8282611cd0565b919050565b6000604051905090565b600067ffffffffffffffff821115611ab957611ab8611d5f565b5b611ac282611d8e565b9050602081019050919050565b6000819050602082019050919050565b600081519050919050565b600081519050919050565b6000602082019050919050565b600082825260208201905092915050565b600082825260208201905092915050565b600082825260208201905092915050565b6000611b4082611c0f565b9150611b4b83611c0f565b9250827fffffffffffffffffffffffffffffffffffffffffffffffffffffffffffffffff03821115611b8057611b7f611d01565b5b828201905092915050565b6000611b9682611c0f565b9150611ba183611c0f565b925082821015611bb457611bb3611d01565b5b828203905092915050565b6000611bca82611bef565b9050919050565b6000611bdc82611bef565b9050919050565b60008115159050919050565b600073ffffffffffffffffffffffffffffffffffffffff82169050919050565b6000819050919050565b600060ff82169050919050565b6000611c3182611c38565b9050919050565b6000611c4382611c4a565b9050919050565b6000611c5582611bef565b9050919050565b82818337600083830152505050565b60005b83811015611c89578082015181840152602081019050611c6e565b83811115611c98576000848401525b50505050565b60006002820490506001821680611cb657607f821691505b60208210811415611cca57611cc9611d30565b5b50919050565b611cd982611d8e565b810181811067ffffffffffffffff82111715611cf857611cf7611d5f565b5b80604052505050565b7f4e487b7100000000000000000000000000000000000000000000000000000000600052601160045260246000fd5b7f4e487b7100000000000000000000000000000000000000000000000000000000600052602260045260246000fd5b7f4e487b7100000000000000000000000000000000000000000000000000000000600052604160045260246000fd5b6000601f19601f8301169050919050565b7f45524332303a207472616e7366657220746f20746865207a65726f206164647260008201527f6573730000000000000000000000000000000000000000000000000000000000602082015250565b7f45524332303a206275726e20616d6f756e7420657863656564732062616c616e60008201527f6365000000000000000000000000000000000000000000000000000000000000602082015250565b7f45524332303a20617070726f766520746f20746865207a65726f20616464726560008201527f7373000000000000000000000000000000000000000000000000000000000000602082015250565b7f45524332303a20696e73756666696369656e7420616c6c6f77616e6365000000600082015250565b7f45524332303a207472616e7366657220616d6f756e742065786365656473206260008201527f616c616e63650000000000000000000000000000000000000000000000000000602082015250565b7f45524332303a206275726e2066726f6d20746865207a65726f2061646472657360008201527f7300000000000000000000000000000000000000000000000000000000000000602082015250565b7f45524332303a207472616e736665722066726f6d20746865207a65726f20616460008201527f6472657373000000000000000000000000000000000000000000000000000000602082015250565b7f45524332303a20617070726f76652066726f6d20746865207a65726f2061646460008201527f7265737300000000000000000000000000000000000000000000000000000000602082015250565b7f45524332303a2064656372656173656420616c6c6f77616e63652062656c6f7760008201527f207a65726f000000000000000000000000000000000000000000000000000000602082015250565b7f45524332303a206d696e7420746f20746865207a65726f206164647265737300600082015250565b61207281611bbf565b811461207d57600080fd5b50565b61208981611bd1565b811461209457600080fd5b50565b6120a081611c0f565b81146120ab57600080fd5b5056fea26469706673582212200a17010744b995e978b7a0b80ba2587a35f59f062690a26bd8c4a0a42ec6cdfb64736f6c63430008040033",
  "linkReferences": {},
  "deployedLinkReferences": {}
}